{
  "contractName": "Acuerdo",
  "abi": [
    {
      "inputs": [],
      "stateMutability": "payable",
      "type": "constructor",
      "payable": true
    },
    {
      "anonymous": false,
      "inputs": [
        {
          "indexed": false,
          "internalType": "uint256",
          "name": "_id",
          "type": "uint256"
        },
        {
          "indexed": false,
          "internalType": "address",
          "name": "_contratante",
          "type": "address"
        },
        {
          "indexed": false,
          "internalType": "address payable",
          "name": "_contratado",
          "type": "address"
        },
        {
          "indexed": false,
          "internalType": "string",
          "name": "_direccionAvisitar",
          "type": "string"
        },
        {
          "indexed": false,
          "internalType": "string",
          "name": "_horarioDeVisita",
          "type": "string"
        },
        {
          "indexed": false,
          "internalType": "string",
          "name": "_servicioArealizar",
          "type": "string"
        },
        {
          "indexed": false,
          "internalType": "string",
          "name": "_descripcion",
          "type": "string"
        },
        {
          "indexed": false,
          "internalType": "uint256",
          "name": "_monto",
          "type": "uint256"
        },
        {
          "indexed": false,
          "internalType": "bool",
          "name": "_checkContratante",
          "type": "bool"
        },
        {
          "indexed": false,
          "internalType": "bool",
          "name": "_checkContratado",
          "type": "bool"
        }
      ],
      "name": "acuerdoGenerado",
      "type": "event"
    },
    {
      "anonymous": false,
      "inputs": [
        {
          "indexed": false,
          "internalType": "uint256",
          "name": "_id",
          "type": "uint256"
        },
        {
          "indexed": false,
          "internalType": "address",
          "name": "_contratado",
          "type": "address"
        }
      ],
      "name": "checkContratadoModificado",
      "type": "event"
    },
    {
      "anonymous": false,
      "inputs": [
        {
          "indexed": false,
          "internalType": "uint256",
          "name": "_id",
          "type": "uint256"
        },
        {
          "indexed": false,
          "internalType": "address",
          "name": "_contratante",
          "type": "address"
        }
      ],
      "name": "checkContratanteModificado",
      "type": "event"
    },
    {
      "anonymous": false,
      "inputs": [
        {
          "indexed": false,
          "internalType": "uint256",
          "name": "_id",
          "type": "uint256"
        }
      ],
      "name": "pagado",
      "type": "event"
    },
    {
      "inputs": [],
      "name": "id",
      "outputs": [
        {
          "internalType": "uint256",
          "name": "",
          "type": "uint256"
        }
      ],
      "stateMutability": "view",
      "type": "function",
      "constant": true
    },
    {
      "inputs": [
        {
          "internalType": "uint256",
          "name": "",
          "type": "uint256"
        }
      ],
      "name": "listAcuerdos",
      "outputs": [
        {
          "internalType": "uint256",
          "name": "_id",
          "type": "uint256"
        },
        {
          "internalType": "address",
          "name": "contratante",
          "type": "address"
        },
        {
          "internalType": "address payable",
          "name": "contratado",
          "type": "address"
        },
        {
          "internalType": "string",
          "name": "direccionAvisitar",
          "type": "string"
        },
        {
          "internalType": "string",
          "name": "horarioDeVisita",
          "type": "string"
        },
        {
          "internalType": "string",
          "name": "servicioArealizar",
          "type": "string"
        },
        {
          "internalType": "string",
          "name": "descripcion",
          "type": "string"
        },
        {
          "internalType": "uint256",
          "name": "monto",
          "type": "uint256"
        },
        {
          "internalType": "bool",
          "name": "checkContratante",
          "type": "bool"
        },
        {
          "internalType": "bool",
          "name": "checkContratado",
          "type": "bool"
        },
        {
          "internalType": "enum Acuerdo.Status",
          "name": "status",
          "type": "uint8"
        }
      ],
      "stateMutability": "view",
      "type": "function",
      "constant": true
    },
    {
      "inputs": [
        {
          "internalType": "address payable",
          "name": "_contratado",
          "type": "address"
        },
        {
          "internalType": "string",
          "name": "_direccionAvisitar",
          "type": "string"
        },
        {
          "internalType": "string",
          "name": "_horarioDeVisita",
          "type": "string"
        },
        {
          "internalType": "string",
          "name": "_servicioArealizar",
          "type": "string"
        },
        {
          "internalType": "string",
          "name": "_descripcion",
          "type": "string"
        },
        {
          "internalType": "uint256",
          "name": "_monto",
          "type": "uint256"
        }
      ],
      "name": "generarAcuerdo",
      "outputs": [],
      "stateMutability": "payable",
      "type": "function",
      "payable": true
    },
    {
      "inputs": [
        {
          "internalType": "uint256",
          "name": "_id",
          "type": "uint256"
        }
      ],
      "name": "getAcuerdo",
      "outputs": [
        {
          "internalType": "uint256",
          "name": "",
          "type": "uint256"
        },
        {
          "internalType": "address",
          "name": "",
          "type": "address"
        },
        {
          "internalType": "address",
          "name": "",
          "type": "address"
        },
        {
          "internalType": "string",
          "name": "",
          "type": "string"
        },
        {
          "internalType": "string",
          "name": "",
          "type": "string"
        },
        {
          "internalType": "string",
          "name": "",
          "type": "string"
        },
        {
          "internalType": "string",
          "name": "",
          "type": "string"
        },
        {
          "internalType": "uint256",
          "name": "",
          "type": "uint256"
        },
        {
          "internalType": "bool",
          "name": "",
          "type": "bool"
        },
        {
          "internalType": "bool",
          "name": "",
          "type": "bool"
        }
      ],
      "stateMutability": "view",
      "type": "function",
      "constant": true
    },
    {
      "inputs": [
        {
          "internalType": "uint256",
          "name": "_id",
          "type": "uint256"
        }
      ],
      "name": "checkContratante",
      "outputs": [],
      "stateMutability": "nonpayable",
      "type": "function"
    },
    {
      "inputs": [
        {
          "internalType": "uint256",
          "name": "_id",
          "type": "uint256"
        }
      ],
      "name": "checkContratado",
      "outputs": [],
      "stateMutability": "nonpayable",
      "type": "function"
    },
    {
      "inputs": [
        {
          "internalType": "uint256",
          "name": "_id",
          "type": "uint256"
        }
      ],
      "name": "pagar",
      "outputs": [],
      "stateMutability": "payable",
      "type": "function",
      "payable": true
    }
  ],
  "bytecode": "0x60806040526000805561321f806100176000396000f3fe6080604052600436106100705760003560e01c8063af640d0f1161004e578063af640d0f146100e3578063b58f72451461010e578063c59cd5f71461012a578063f25684a31461017157610070565b80633574997a146100755780633aa6d2081461009e5780638cd0eeea146100ba575b600080fd5b34801561008157600080fd5b5061009c60048036038101906100979190612bd3565b6101b7565b005b6100b860048036038101906100b39190612bd3565b6107ff565b005b3480156100c657600080fd5b506100e160048036038101906100dc9190612bd3565b611139565b005b3480156100ef57600080fd5b506100f8611781565b6040516101059190612c80565b60405180910390f35b61012860048036038101906101239190612aea565b611787565b005b34801561013657600080fd5b50610151600480360381019061014c9190612bd3565b611a9b565b6040516101689b9a99989796959493929190612d7c565b60405180910390f35b34801561017d57600080fd5b5061019860048036038101906101939190612bd3565b611d7c565b6040516101ae9a99989796959493929190612e43565b60405180910390f35b60006101c2826121c9565b90503373ffffffffffffffffffffffffffffffffffffffff168173ffffffffffffffffffffffffffffffffffffffff16146101fc57600080fd5b60006001600084815260200190815260200160002060405180610160016040529081600082015481526020016001820160009054906101000a900473ffffffffffffffffffffffffffffffffffffffff1673ffffffffffffffffffffffffffffffffffffffff1673ffffffffffffffffffffffffffffffffffffffff1681526020016002820160009054906101000a900473ffffffffffffffffffffffffffffffffffffffff1673ffffffffffffffffffffffffffffffffffffffff1673ffffffffffffffffffffffffffffffffffffffff1681526020016003820180546102e39061302e565b80601f016020809104026020016040519081016040528092919081815260200182805461030f9061302e565b801561035c5780601f106103315761010080835404028352916020019161035c565b820191906000526020600020905b81548152906001019060200180831161033f57829003601f168201915b505050505081526020016004820180546103759061302e565b80601f01602080910402602001604051908101604052809291908181526020018280546103a19061302e565b80156103ee5780601f106103c3576101008083540402835291602001916103ee565b820191906000526020600020905b8154815290600101906020018083116103d157829003601f168201915b505050505081526020016005820180546104079061302e565b80601f01602080910402602001604051908101604052809291908181526020018280546104339061302e565b80156104805780601f1061045557610100808354040283529160200191610480565b820191906000526020600020905b81548152906001019060200180831161046357829003601f168201915b505050505081526020016006820180546104999061302e565b80601f01602080910402602001604051908101604052809291908181526020018280546104c59061302e565b80156105125780601f106104e757610100808354040283529160200191610512565b820191906000526020600020905b8154815290600101906020018083116104f557829003601f168201915b50505050508152602001600782015481526020016008820160009054906101000a900460ff161515151581526020016008820160019054906101000a900460ff161515151581526020016008820160029054906101000a900460ff1660018111156105a6577f4e487b7100000000000000000000000000000000000000000000000000000000600052602160045260246000fd5b60018111156105de577f4e487b7100000000000000000000000000000000000000000000000000000000600052602160045260246000fd5b815250509050806101200151158161012001901515908115158152505080600160008581526020019081526020016000206000820151816000015560208201518160010160006101000a81548173ffffffffffffffffffffffffffffffffffffffff021916908373ffffffffffffffffffffffffffffffffffffffff16021790555060408201518160020160006101000a81548173ffffffffffffffffffffffffffffffffffffffff021916908373ffffffffffffffffffffffffffffffffffffffff16021790555060608201518160030190805190602001906106c39291906129b5565b5060808201518160040190805190602001906106e09291906129b5565b5060a08201518160050190805190602001906106fd9291906129b5565b5060c082015181600601908051906020019061071a9291906129b5565b5060e082015181600701556101008201518160080160006101000a81548160ff0219169083151502179055506101208201518160080160016101000a81548160ff0219169083151502179055506101408201518160080160026101000a81548160ff021916908360018111156107b9577f4e487b7100000000000000000000000000000000000000000000000000000000600052602160045260246000fd5b02179055509050507fa135692614498b152fba8783104165b1fa8c6254c5eba2975137ff4e3b162c9c83336040516107f2929190612c9b565b60405180910390a1505050565b60006001600083815260200190815260200160002060405180610160016040529081600082015481526020016001820160009054906101000a900473ffffffffffffffffffffffffffffffffffffffff1673ffffffffffffffffffffffffffffffffffffffff1673ffffffffffffffffffffffffffffffffffffffff1681526020016002820160009054906101000a900473ffffffffffffffffffffffffffffffffffffffff1673ffffffffffffffffffffffffffffffffffffffff1673ffffffffffffffffffffffffffffffffffffffff1681526020016003820180546108e69061302e565b80601f01602080910402602001604051908101604052809291908181526020018280546109129061302e565b801561095f5780601f106109345761010080835404028352916020019161095f565b820191906000526020600020905b81548152906001019060200180831161094257829003601f168201915b505050505081526020016004820180546109789061302e565b80601f01602080910402602001604051908101604052809291908181526020018280546109a49061302e565b80156109f15780601f106109c6576101008083540402835291602001916109f1565b820191906000526020600020905b8154815290600101906020018083116109d457829003601f168201915b50505050508152602001600582018054610a0a9061302e565b80601f0160208091040260200160405190810160405280929190818152602001828054610a369061302e565b8015610a835780601f10610a5857610100808354040283529160200191610a83565b820191906000526020600020905b815481529060010190602001808311610a6657829003601f168201915b50505050508152602001600682018054610a9c9061302e565b80601f0160208091040260200160405190810160405280929190818152602001828054610ac89061302e565b8015610b155780601f10610aea57610100808354040283529160200191610b15565b820191906000526020600020905b815481529060010190602001808311610af857829003601f168201915b50505050508152602001600782015481526020016008820160009054906101000a900460ff161515151581526020016008820160019054906101000a900460ff161515151581526020016008820160029054906101000a900460ff166001811115610ba9577f4e487b7100000000000000000000000000000000000000000000000000000000600052602160045260246000fd5b6001811115610be1577f4e487b7100000000000000000000000000000000000000000000000000000000600052602160045260246000fd5b81525050905060006001811115610c21577f4e487b7100000000000000000000000000000000000000000000000000000000600052602160045260246000fd5b8161014001516001811115610c5f577f4e487b7100000000000000000000000000000000000000000000000000000000600052602160045260246000fd5b14610c6957600080fd5b600115158161012001511515148015610c8b5750600115158161010001511515145b610c9457600080fd5b60008160e00151905060008260e001818152505081600160008581526020019081526020016000206000820151816000015560208201518160010160006101000a81548173ffffffffffffffffffffffffffffffffffffffff021916908373ffffffffffffffffffffffffffffffffffffffff16021790555060408201518160020160006101000a81548173ffffffffffffffffffffffffffffffffffffffff021916908373ffffffffffffffffffffffffffffffffffffffff1602179055506060820151816003019080519060200190610d709291906129b5565b506080820151816004019080519060200190610d8d9291906129b5565b5060a0820151816005019080519060200190610daa9291906129b5565b5060c0820151816006019080519060200190610dc79291906129b5565b5060e082015181600701556101008201518160080160006101000a81548160ff0219169083151502179055506101208201518160080160016101000a81548160ff0219169083151502179055506101408201518160080160026101000a81548160ff02191690836001811115610e66577f4e487b7100000000000000000000000000000000000000000000000000000000600052602160045260246000fd5b0217905550905050816040015173ffffffffffffffffffffffffffffffffffffffff166108fc829081150290604051600060405180830381858888f19350505050158015610eb8573d6000803e3d6000fd5b5060018261014001906001811115610ef9577f4e487b7100000000000000000000000000000000000000000000000000000000600052602160045260246000fd5b90816001811115610f33577f4e487b7100000000000000000000000000000000000000000000000000000000600052602160045260246000fd5b8152505081600160008581526020019081526020016000206000820151816000015560208201518160010160006101000a81548173ffffffffffffffffffffffffffffffffffffffff021916908373ffffffffffffffffffffffffffffffffffffffff16021790555060408201518160020160006101000a81548173ffffffffffffffffffffffffffffffffffffffff021916908373ffffffffffffffffffffffffffffffffffffffff1602179055506060820151816003019080519060200190610fff9291906129b5565b50608082015181600401908051906020019061101c9291906129b5565b5060a08201518160050190805190602001906110399291906129b5565b5060c08201518160060190805190602001906110569291906129b5565b5060e082015181600701556101008201518160080160006101000a81548160ff0219169083151502179055506101208201518160080160016101000a81548160ff0219169083151502179055506101408201518160080160026101000a81548160ff021916908360018111156110f5577f4e487b7100000000000000000000000000000000000000000000000000000000600052602160045260246000fd5b02179055509050507fbb1a00d048b3d383b1a2eb2ad44750f3d2bb5380d1f71a88b6d5b6e239053c8e8360405161112c9190612c80565b60405180910390a1505050565b6000611144826125bf565b90503373ffffffffffffffffffffffffffffffffffffffff168173ffffffffffffffffffffffffffffffffffffffff161461117e57600080fd5b60006001600084815260200190815260200160002060405180610160016040529081600082015481526020016001820160009054906101000a900473ffffffffffffffffffffffffffffffffffffffff1673ffffffffffffffffffffffffffffffffffffffff1673ffffffffffffffffffffffffffffffffffffffff1681526020016002820160009054906101000a900473ffffffffffffffffffffffffffffffffffffffff1673ffffffffffffffffffffffffffffffffffffffff1673ffffffffffffffffffffffffffffffffffffffff1681526020016003820180546112659061302e565b80601f01602080910402602001604051908101604052809291908181526020018280546112919061302e565b80156112de5780601f106112b3576101008083540402835291602001916112de565b820191906000526020600020905b8154815290600101906020018083116112c157829003601f168201915b505050505081526020016004820180546112f79061302e565b80601f01602080910402602001604051908101604052809291908181526020018280546113239061302e565b80156113705780601f1061134557610100808354040283529160200191611370565b820191906000526020600020905b81548152906001019060200180831161135357829003601f168201915b505050505081526020016005820180546113899061302e565b80601f01602080910402602001604051908101604052809291908181526020018280546113b59061302e565b80156114025780601f106113d757610100808354040283529160200191611402565b820191906000526020600020905b8154815290600101906020018083116113e557829003601f168201915b5050505050815260200160068201805461141b9061302e565b80601f01602080910402602001604051908101604052809291908181526020018280546114479061302e565b80156114945780601f1061146957610100808354040283529160200191611494565b820191906000526020600020905b81548152906001019060200180831161147757829003601f168201915b50505050508152602001600782015481526020016008820160009054906101000a900460ff161515151581526020016008820160019054906101000a900460ff161515151581526020016008820160029054906101000a900460ff166001811115611528577f4e487b7100000000000000000000000000000000000000000000000000000000600052602160045260246000fd5b6001811115611560577f4e487b7100000000000000000000000000000000000000000000000000000000600052602160045260246000fd5b815250509050806101000151158161010001901515908115158152505080600160008581526020019081526020016000206000820151816000015560208201518160010160006101000a81548173ffffffffffffffffffffffffffffffffffffffff021916908373ffffffffffffffffffffffffffffffffffffffff16021790555060408201518160020160006101000a81548173ffffffffffffffffffffffffffffffffffffffff021916908373ffffffffffffffffffffffffffffffffffffffff16021790555060608201518160030190805190602001906116459291906129b5565b5060808201518160040190805190602001906116629291906129b5565b5060a082015181600501908051906020019061167f9291906129b5565b5060c082015181600601908051906020019061169c9291906129b5565b5060e082015181600701556101008201518160080160006101000a81548160ff0219169083151502179055506101208201518160080160016101000a81548160ff0219169083151502179055506101408201518160080160026101000a81548160ff0219169083600181111561173b577f4e487b7100000000000000000000000000000000000000000000000000000000600052602160045260246000fd5b02179055509050507ff73698cf6efa7ab8be3143f2cdfe5ecccb97861132766542b0b7ac25dec888d98333604051611774929190612c9b565b60405180910390a1505050565b60005481565b600085511161179557600080fd5b60008351116117a357600080fd5b60008251116117b157600080fd5b6000808154809291906117c390613091565b919050555060405180610160016040528060005481526020013373ffffffffffffffffffffffffffffffffffffffff1681526020018773ffffffffffffffffffffffffffffffffffffffff1681526020018681526020018581526020018481526020018381526020018281526020016000151581526020016000151581526020016000600181111561187e577f4e487b7100000000000000000000000000000000000000000000000000000000600052602160045260246000fd5b81525060016000805481526020019081526020016000206000820151816000015560208201518160010160006101000a81548173ffffffffffffffffffffffffffffffffffffffff021916908373ffffffffffffffffffffffffffffffffffffffff16021790555060408201518160020160006101000a81548173ffffffffffffffffffffffffffffffffffffffff021916908373ffffffffffffffffffffffffffffffffffffffff16021790555060608201518160030190805190602001906119499291906129b5565b5060808201518160040190805190602001906119669291906129b5565b5060a08201518160050190805190602001906119839291906129b5565b5060c08201518160060190805190602001906119a09291906129b5565b5060e082015181600701556101008201518160080160006101000a81548160ff0219169083151502179055506101208201518160080160016101000a81548160ff0219169083151502179055506101408201518160080160026101000a81548160ff02191690836001811115611a3f577f4e487b7100000000000000000000000000000000000000000000000000000000600052602160045260246000fd5b02179055509050507f9ce19b5bd64c9700227d9fffe4898cabd836a8ebb2aa8006ed0c8434b7bae5aa60005433888888888888600080604051611a8b9a99989796959493929190612cc4565b60405180910390a1505050505050565b60016020528060005260406000206000915090508060000154908060010160009054906101000a900473ffffffffffffffffffffffffffffffffffffffff16908060020160009054906101000a900473ffffffffffffffffffffffffffffffffffffffff1690806003018054611b109061302e565b80601f0160208091040260200160405190810160405280929190818152602001828054611b3c9061302e565b8015611b895780601f10611b5e57610100808354040283529160200191611b89565b820191906000526020600020905b815481529060010190602001808311611b6c57829003601f168201915b505050505090806004018054611b9e9061302e565b80601f0160208091040260200160405190810160405280929190818152602001828054611bca9061302e565b8015611c175780601f10611bec57610100808354040283529160200191611c17565b820191906000526020600020905b815481529060010190602001808311611bfa57829003601f168201915b505050505090806005018054611c2c9061302e565b80601f0160208091040260200160405190810160405280929190818152602001828054611c589061302e565b8015611ca55780601f10611c7a57610100808354040283529160200191611ca5565b820191906000526020600020905b815481529060010190602001808311611c8857829003601f168201915b505050505090806006018054611cba9061302e565b80601f0160208091040260200160405190810160405280929190818152602001828054611ce69061302e565b8015611d335780601f10611d0857610100808354040283529160200191611d33565b820191906000526020600020905b815481529060010190602001808311611d1657829003601f168201915b5050505050908060070154908060080160009054906101000a900460ff16908060080160019054906101000a900460ff16908060080160029054906101000a900460ff1690508b565b6000806000606080606080600080600080600160008d815260200190815260200160002060405180610160016040529081600082015481526020016001820160009054906101000a900473ffffffffffffffffffffffffffffffffffffffff1673ffffffffffffffffffffffffffffffffffffffff1673ffffffffffffffffffffffffffffffffffffffff1681526020016002820160009054906101000a900473ffffffffffffffffffffffffffffffffffffffff1673ffffffffffffffffffffffffffffffffffffffff1673ffffffffffffffffffffffffffffffffffffffff168152602001600382018054611e729061302e565b80601f0160208091040260200160405190810160405280929190818152602001828054611e9e9061302e565b8015611eeb5780601f10611ec057610100808354040283529160200191611eeb565b820191906000526020600020905b815481529060010190602001808311611ece57829003601f168201915b50505050508152602001600482018054611f049061302e565b80601f0160208091040260200160405190810160405280929190818152602001828054611f309061302e565b8015611f7d5780601f10611f5257610100808354040283529160200191611f7d565b820191906000526020600020905b815481529060010190602001808311611f6057829003601f168201915b50505050508152602001600582018054611f969061302e565b80601f0160208091040260200160405190810160405280929190818152602001828054611fc29061302e565b801561200f5780601f10611fe45761010080835404028352916020019161200f565b820191906000526020600020905b815481529060010190602001808311611ff257829003601f168201915b505050505081526020016006820180546120289061302e565b80601f01602080910402602001604051908101604052809291908181526020018280546120549061302e565b80156120a15780601f10612076576101008083540402835291602001916120a1565b820191906000526020600020905b81548152906001019060200180831161208457829003601f168201915b50505050508152602001600782015481526020016008820160009054906101000a900460ff161515151581526020016008820160019054906101000a900460ff161515151581526020016008820160029054906101000a900460ff166001811115612135577f4e487b7100000000000000000000000000000000000000000000000000000000600052602160045260246000fd5b600181111561216d577f4e487b7100000000000000000000000000000000000000000000000000000000600052602160045260246000fd5b815250509050806000015181602001518260400151836060015184608001518560a001518660c001518760e001518861010001518961012001519a509a509a509a509a509a509a509a509a509a50509193959799509193959799565b6000806001600084815260200190815260200160002060405180610160016040529081600082015481526020016001820160009054906101000a900473ffffffffffffffffffffffffffffffffffffffff1673ffffffffffffffffffffffffffffffffffffffff1673ffffffffffffffffffffffffffffffffffffffff1681526020016002820160009054906101000a900473ffffffffffffffffffffffffffffffffffffffff1673ffffffffffffffffffffffffffffffffffffffff1673ffffffffffffffffffffffffffffffffffffffff1681526020016003820180546122b19061302e565b80601f01602080910402602001604051908101604052809291908181526020018280546122dd9061302e565b801561232a5780601f106122ff5761010080835404028352916020019161232a565b820191906000526020600020905b81548152906001019060200180831161230d57829003601f168201915b505050505081526020016004820180546123439061302e565b80601f016020809104026020016040519081016040528092919081815260200182805461236f9061302e565b80156123bc5780601f10612391576101008083540402835291602001916123bc565b820191906000526020600020905b81548152906001019060200180831161239f57829003601f168201915b505050505081526020016005820180546123d59061302e565b80601f01602080910402602001604051908101604052809291908181526020018280546124019061302e565b801561244e5780601f106124235761010080835404028352916020019161244e565b820191906000526020600020905b81548152906001019060200180831161243157829003601f168201915b505050505081526020016006820180546124679061302e565b80601f01602080910402602001604051908101604052809291908181526020018280546124939061302e565b80156124e05780601f106124b5576101008083540402835291602001916124e0565b820191906000526020600020905b8154815290600101906020018083116124c357829003601f168201915b50505050508152602001600782015481526020016008820160009054906101000a900460ff161515151581526020016008820160019054906101000a900460ff161515151581526020016008820160029054906101000a900460ff166001811115612574577f4e487b7100000000000000000000000000000000000000000000000000000000600052602160045260246000fd5b60018111156125ac577f4e487b7100000000000000000000000000000000000000000000000000000000600052602160045260246000fd5b8152505090508060400151915050919050565b6000806001600084815260200190815260200160002060405180610160016040529081600082015481526020016001820160009054906101000a900473ffffffffffffffffffffffffffffffffffffffff1673ffffffffffffffffffffffffffffffffffffffff1673ffffffffffffffffffffffffffffffffffffffff1681526020016002820160009054906101000a900473ffffffffffffffffffffffffffffffffffffffff1673ffffffffffffffffffffffffffffffffffffffff1673ffffffffffffffffffffffffffffffffffffffff1681526020016003820180546126a79061302e565b80601f01602080910402602001604051908101604052809291908181526020018280546126d39061302e565b80156127205780601f106126f557610100808354040283529160200191612720565b820191906000526020600020905b81548152906001019060200180831161270357829003601f168201915b505050505081526020016004820180546127399061302e565b80601f01602080910402602001604051908101604052809291908181526020018280546127659061302e565b80156127b25780601f10612787576101008083540402835291602001916127b2565b820191906000526020600020905b81548152906001019060200180831161279557829003601f168201915b505050505081526020016005820180546127cb9061302e565b80601f01602080910402602001604051908101604052809291908181526020018280546127f79061302e565b80156128445780601f1061281957610100808354040283529160200191612844565b820191906000526020600020905b81548152906001019060200180831161282757829003601f168201915b5050505050815260200160068201805461285d9061302e565b80601f01602080910402602001604051908101604052809291908181526020018280546128899061302e565b80156128d65780601f106128ab576101008083540402835291602001916128d6565b820191906000526020600020905b8154815290600101906020018083116128b957829003601f168201915b50505050508152602001600782015481526020016008820160009054906101000a900460ff161515151581526020016008820160019054906101000a900460ff161515151581526020016008820160029054906101000a900460ff16600181111561296a577f4e487b7100000000000000000000000000000000000000000000000000000000600052602160045260246000fd5b60018111156129a2577f4e487b7100000000000000000000000000000000000000000000000000000000600052602160045260246000fd5b8152505090508060200151915050919050565b8280546129c19061302e565b90600052602060002090601f0160209004810192826129e35760008555612a2a565b82601f106129fc57805160ff1916838001178555612a2a565b82800160010185558215612a2a579182015b82811115612a29578251825591602001919060010190612a0e565b5b509050612a379190612a3b565b5090565b5b80821115612a54576000816000905550600101612a3c565b5090565b6000612a6b612a6684612f20565b612efb565b905082815260208101848484011115612a8357600080fd5b612a8e848285612fec565b509392505050565b600081359050612aa5816131bb565b92915050565b600082601f830112612abc57600080fd5b8135612acc848260208601612a58565b91505092915050565b600081359050612ae4816131d2565b92915050565b60008060008060008060c08789031215612b0357600080fd5b6000612b1189828a01612a96565b965050602087013567ffffffffffffffff811115612b2e57600080fd5b612b3a89828a01612aab565b955050604087013567ffffffffffffffff811115612b5757600080fd5b612b6389828a01612aab565b945050606087013567ffffffffffffffff811115612b8057600080fd5b612b8c89828a01612aab565b935050608087013567ffffffffffffffff811115612ba957600080fd5b612bb589828a01612aab565b92505060a0612bc689828a01612ad5565b9150509295509295509295565b600060208284031215612be557600080fd5b6000612bf384828501612ad5565b91505092915050565b612c0581612f7f565b82525050565b612c1481612f6d565b82525050565b612c2381612f91565b82525050565b612c3281612fda565b82525050565b6000612c4382612f51565b612c4d8185612f5c565b9350612c5d818560208601612ffb565b612c6681613196565b840191505092915050565b612c7a81612fd0565b82525050565b6000602082019050612c956000830184612c71565b92915050565b6000604082019050612cb06000830185612c71565b612cbd6020830184612c0b565b9392505050565b600061014082019050612cda600083018d612c71565b612ce7602083018c612c0b565b612cf4604083018b612bfc565b8181036060830152612d06818a612c38565b90508181036080830152612d1a8189612c38565b905081810360a0830152612d2e8188612c38565b905081810360c0830152612d428187612c38565b9050612d5160e0830186612c71565b612d5f610100830185612c1a565b612d6d610120830184612c1a565b9b9a5050505050505050505050565b600061016082019050612d92600083018e612c71565b612d9f602083018d612c0b565b612dac604083018c612bfc565b8181036060830152612dbe818b612c38565b90508181036080830152612dd2818a612c38565b905081810360a0830152612de68189612c38565b905081810360c0830152612dfa8188612c38565b9050612e0960e0830187612c71565b612e17610100830186612c1a565b612e25610120830185612c1a565b612e33610140830184612c29565b9c9b505050505050505050505050565b600061014082019050612e59600083018d612c71565b612e66602083018c612c0b565b612e73604083018b612c0b565b8181036060830152612e85818a612c38565b90508181036080830152612e998189612c38565b905081810360a0830152612ead8188612c38565b905081810360c0830152612ec18187612c38565b9050612ed060e0830186612c71565b612ede610100830185612c1a565b612eec610120830184612c1a565b9b9a5050505050505050505050565b6000612f05612f16565b9050612f118282613060565b919050565b6000604051905090565b600067ffffffffffffffff821115612f3b57612f3a613167565b5b612f4482613196565b9050602081019050919050565b600081519050919050565b600082825260208201905092915050565b6000612f7882612fb0565b9050919050565b6000612f8a82612fb0565b9050919050565b60008115159050919050565b6000819050612fab826131a7565b919050565b600073ffffffffffffffffffffffffffffffffffffffff82169050919050565b6000819050919050565b6000612fe582612f9d565b9050919050565b82818337600083830152505050565b60005b83811015613019578082015181840152602081019050612ffe565b83811115613028576000848401525b50505050565b6000600282049050600182168061304657607f821691505b6020821081141561305a57613059613138565b5b50919050565b61306982613196565b810181811067ffffffffffffffff8211171561308857613087613167565b5b80604052505050565b600061309c82612fd0565b91507fffffffffffffffffffffffffffffffffffffffffffffffffffffffffffffffff8214156130cf576130ce6130da565b5b600182019050919050565b7f4e487b7100000000000000000000000000000000000000000000000000000000600052601160045260246000fd5b7f4e487b7100000000000000000000000000000000000000000000000000000000600052602160045260246000fd5b7f4e487b7100000000000000000000000000000000000000000000000000000000600052602260045260246000fd5b7f4e487b7100000000000000000000000000000000000000000000000000000000600052604160045260246000fd5b6000601f19601f8301169050919050565b600281106131b8576131b7613109565b5b50565b6131c481612f7f565b81146131cf57600080fd5b50565b6131db81612fd0565b81146131e657600080fd5b5056fea2646970667358221220fd58a91ecd4c2bec156441746c172984791e35d75724fba62ffbe7e05644802c64736f6c63430008040033",
  "immutableReferences": {},
  "source": "// SPDX-License-Identifier: MIT\r\npragma solidity ^0.8.4;\r\n\r\ncontract Acuerdo {\r\n    uint public id = 0;\r\n\r\n    mapping (uint => AcuerdoDePalabra) public listAcuerdos;\r\n\r\n    constructor() payable {}\r\n\r\n    enum Status {open, finalized}\r\n\r\n    struct AcuerdoDePalabra {\r\n        uint _id;\r\n        address contratante;\r\n        address payable contratado;\r\n        string direccionAvisitar;\r\n        string horarioDeVisita;\r\n        string servicioArealizar;\r\n        string descripcion;\r\n        uint monto;\r\n        bool checkContratante;\r\n        bool checkContratado;\r\n        Status status;\r\n    }\r\n\r\n    event acuerdoGenerado(uint _id, address _contratante, address payable _contratado, string _direccionAvisitar, string _horarioDeVisita, string _servicioArealizar,\r\n        string _descripcion, uint _monto, bool _checkContratante, bool _checkContratado);\r\n    event checkContratanteModificado (uint _id, address _contratante);\r\n    event checkContratadoModificado(uint _id, address _contratado);\r\n    event pagado (uint _id);\r\n\r\n    function generarAcuerdo (address payable _contratado, string memory _direccionAvisitar, string memory _horarioDeVisita, string memory _servicioArealizar, string memory _descripcion,\r\n                             uint _monto) public payable {\r\n        //require(msg.value == _monto && msg.value>0 && _monto>0);\r\n        require(bytes(_direccionAvisitar).length > 0);\r\n        require(bytes(_servicioArealizar).length > 0);\r\n        require(bytes(_descripcion).length > 0);\r\n        \r\n\r\n        id++;\r\n        listAcuerdos[id] = AcuerdoDePalabra(id, msg.sender, _contratado, _direccionAvisitar, _horarioDeVisita, _servicioArealizar, _descripcion, _monto, false, false, Status.open);\r\n        emit acuerdoGenerado(id, msg.sender,_contratado, _direccionAvisitar, _horarioDeVisita, _servicioArealizar, _descripcion, _monto, false, false);\r\n    }\r\n\r\n    function getAcuerdo (uint _id) public view returns (uint,address,address,string memory,string memory,string memory,string memory,uint,bool,bool) {\r\n        AcuerdoDePalabra memory _listAcuerdos = listAcuerdos[_id];\r\n\r\n        return (_listAcuerdos._id, _listAcuerdos.contratante, _listAcuerdos.contratado, _listAcuerdos.direccionAvisitar, \r\n        _listAcuerdos.horarioDeVisita, _listAcuerdos.servicioArealizar, _listAcuerdos.descripcion, \r\n        _listAcuerdos.monto, _listAcuerdos.checkContratante, _listAcuerdos.checkContratado);\r\n    }\r\n\r\n    function getContratanteAcuerdo (uint _id) internal view returns (address) {\r\n        AcuerdoDePalabra memory _listAcuerdos = listAcuerdos[_id];\r\n\r\n        return (_listAcuerdos.contratante);\r\n    }\r\n\r\n    function getContratadoAcuerdo (uint _id) internal view returns (address) {\r\n        AcuerdoDePalabra memory _listAcuerdos = listAcuerdos[_id];\r\n\r\n        return (_listAcuerdos.contratado);\r\n    }\r\n   \r\n    function checkContratante (uint _id) public{\r\n        address dirContratanteContrato = getContratanteAcuerdo(_id);\r\n        require(dirContratanteContrato == msg.sender);\r\n\r\n        AcuerdoDePalabra memory _listAcuerdos = listAcuerdos[_id];\r\n        _listAcuerdos.checkContratante = !_listAcuerdos.checkContratante;\r\n        listAcuerdos[_id] = _listAcuerdos;\r\n        emit checkContratanteModificado (_id, msg.sender);\r\n        /*\r\n        if(listAcuerdos[id].checkContratado == true && listAcuerdos[id].checkContratante == true){\r\n            pagar(_id);\r\n        }*/\r\n        \r\n    }\r\n\r\n   \r\n\r\n    function checkContratado(uint _id) public{\r\n        address dirContratanteContrato = getContratadoAcuerdo(_id);\r\n        require(dirContratanteContrato == msg.sender);\r\n\r\n        AcuerdoDePalabra memory _listAcuerdos = listAcuerdos[_id];\r\n        _listAcuerdos.checkContratado = !_listAcuerdos.checkContratado;\r\n        listAcuerdos[_id] = _listAcuerdos;\r\n        emit checkContratadoModificado (_id, msg.sender);\r\n        /*\r\n        if(listAcuerdos[id].checkContratado == true && listAcuerdos[id].checkContratante == true){\r\n            pagar(_id);\r\n            emit pagado (_id);\r\n        }*/\r\n    }\r\n\r\n  function pagar (uint _id) public payable {\r\n        \r\n        AcuerdoDePalabra memory _listAcuerdos = listAcuerdos[_id];\r\n        require( _listAcuerdos.status == Status.open);\r\n        require(_listAcuerdos.checkContratado == true && _listAcuerdos.checkContratante == true);\r\n        uint monto = _listAcuerdos.monto;\r\n\r\n        _listAcuerdos.monto = 0;\r\n        listAcuerdos[_id] = _listAcuerdos;\r\n        payable(_listAcuerdos.contratado).transfer(monto);\r\n        _listAcuerdos.status = Status.finalized;\r\n        listAcuerdos[_id] = _listAcuerdos;\r\n        emit pagado (_id);\r\n    }   \r\n\r\n    \r\n}",
  "sourcePath": "E:\\Kammit\\contracts\\Acuerdo.sol",
  "compiler": {
    "name": "solc",
    "version": "0.8.4+commit.c7e474f2.Emscripten.clang"
  },
  "schemaVersion": "3.4.10",
  "updatedAt": "2022-11-09T02:14:09.684Z",
  "networkType": "ethereum",
  "devdoc": {
    "kind": "dev",
    "methods": {},
    "version": 1
  },
  "userdoc": {
    "kind": "user",
    "methods": {},
    "version": 1
  }
}