{
  "contractName": "AcuerdoPersonaContrata",
  "abi": [
    {
      "inputs": [
        {
          "internalType": "uint256",
          "name": "_monto",
          "type": "uint256"
        },
        {
          "internalType": "bool",
          "name": "check",
          "type": "bool"
        }
      ],
      "stateMutability": "nonpayable",
      "type": "constructor"
    },
    {
      "anonymous": false,
      "inputs": [
        {
          "indexed": false,
          "internalType": "address",
          "name": "_owner",
          "type": "address"
        },
        {
          "indexed": false,
          "internalType": "uint256",
          "name": "_monto",
          "type": "uint256"
        },
        {
          "indexed": false,
          "internalType": "bool",
          "name": "check",
          "type": "bool"
        }
      ],
      "name": "acuerdoFinalizado",
      "type": "event"
    },
    {
      "inputs": [],
      "name": "getInfo",
      "outputs": [
        {
          "internalType": "address",
          "name": "",
          "type": "address"
        },
        {
          "internalType": "address",
          "name": "",
          "type": "address"
        },
        {
          "internalType": "uint256",
          "name": "",
          "type": "uint256"
        },
        {
          "internalType": "bool",
          "name": "",
          "type": "bool"
        }
      ],
      "stateMutability": "view",
      "type": "function"
    }
  ],
  "bytecode": "0x60806040526000600260006101000a81548160ff02191690831515021790555034801561002b57600080fd5b506040516103f63803806103f6833981810160405281019061004d919061011a565b336000806101000a81548173ffffffffffffffffffffffffffffffffffffffff021916908373ffffffffffffffffffffffffffffffffffffffff1602179055508160018190555080600260006101000a81548160ff0219169083151502179055507f369bfbeb43afd780f71cbd4d34bcb0393da735733b18947118afd8e3f49abc603383836040516100e193929190610187565b60405180910390a1505061025d565b6000815190506100ff8161022f565b92915050565b60008151905061011481610246565b92915050565b600080604083850312156101315761013061022a565b5b600061013f85828601610105565b9250506020610150858286016100f0565b9150509250929050565b610163816101f4565b82525050565b610172816101be565b82525050565b610181816101ea565b82525050565b600060608201905061019c600083018661015a565b6101a96020830185610178565b6101b66040830184610169565b949350505050565b60008115159050919050565b600073ffffffffffffffffffffffffffffffffffffffff82169050919050565b6000819050919050565b60006101ff82610206565b9050919050565b600061021182610218565b9050919050565b6000610223826101ca565b9050919050565b600080fd5b610238816101be565b811461024357600080fd5b50565b61024f816101ea565b811461025a57600080fd5b50565b61018a8061026c6000396000f3fe608060405234801561001057600080fd5b506004361061002b5760003560e01c80635a9b0b8914610030575b600080fd5b610038610051565b60405161004894939291906100c7565b60405180910390f35b6000806000803360008054906101000a900473ffffffffffffffffffffffffffffffffffffffff16600154600260009054906101000a900460ff16935093509350935090919293565b6100a38161010c565b82525050565b6100b28161011e565b82525050565b6100c18161014a565b82525050565b60006080820190506100dc600083018761009a565b6100e9602083018661009a565b6100f660408301856100b8565b61010360608301846100a9565b95945050505050565b60006101178261012a565b9050919050565b60008115159050919050565b600073ffffffffffffffffffffffffffffffffffffffff82169050919050565b600081905091905056fea2646970667358221220dd76ed7235e7a4f09198b2e2d5f47b2a40dcb7a6537d92af554c7abc4ed1dd8b64736f6c63430008060033",
  "immutableReferences": {},
  "source": "// SPDX-License-Identifier: MIT\r\npragma solidity ^0.8.4;\r\n\r\ncontract AcuerdoPersonaContrata{\r\n    address personaQueContrata;\r\n    uint montoAcordadoContratante;\r\n    bool checkPersonaQueContrata = false;\r\n    \r\n    event acuerdoFinalizado (address _owner, uint _monto, bool check);\r\n\r\n    constructor(uint _monto, bool check){\r\n        personaQueContrata = payable(msg.sender);\r\n        montoAcordadoContratante = _monto;\r\n        checkPersonaQueContrata = check;\r\n        emit acuerdoFinalizado (payable(msg.sender), _monto, check);\r\n    }\r\n\r\n    function getInfo () public view returns(address, address, uint, bool){\r\n        return (msg.sender, personaQueContrata,montoAcordadoContratante, checkPersonaQueContrata);\r\n    }\r\n\r\n}",
  "sourcePath": "E:\\contract\\contracts\\AcuerdoPersonaContrata.sol",
  "compiler": {
    "name": "solc",
    "version": "0.8.6+commit.11564f7e.Emscripten.clang"
  },
  "schemaVersion": "3.4.10",
  "updatedAt": "2022-11-05T17:15:32.112Z",
  "devdoc": {
    "kind": "dev",
    "methods": {},
    "version": 1
  },
  "userdoc": {
    "kind": "user",
    "methods": {},
    "version": 1
  }
}