{
  "contractName": "MarketPlaces",
  "abi": [
    {
      "anonymous": false,
      "inputs": [
        {
          "indexed": false,
          "internalType": "uint256",
          "name": "id",
          "type": "uint256"
        },
        {
          "indexed": false,
          "internalType": "bool",
          "name": "checkPersonaAcontratar",
          "type": "bool"
        }
      ],
      "name": "checkModificadoPorPersonaAcontratar",
      "type": "event"
    },
    {
      "anonymous": false,
      "inputs": [
        {
          "indexed": false,
          "internalType": "uint256",
          "name": "id",
          "type": "uint256"
        },
        {
          "indexed": false,
          "internalType": "address payable",
          "name": "owner",
          "type": "address"
        },
        {
          "indexed": false,
          "internalType": "string",
          "name": "nombre",
          "type": "string"
        },
        {
          "indexed": false,
          "internalType": "string",
          "name": "apellido",
          "type": "string"
        },
        {
          "indexed": false,
          "internalType": "string",
          "name": "horarioDispoble",
          "type": "string"
        },
        {
          "indexed": false,
          "internalType": "string",
          "name": "urlImagen",
          "type": "string"
        },
        {
          "indexed": false,
          "internalType": "string[]",
          "name": "servicios",
          "type": "string[]"
        }
      ],
      "name": "personaRegistrada",
      "type": "event"
    },
    {
      "anonymous": false,
      "inputs": [
        {
          "indexed": false,
          "internalType": "uint256",
          "name": "cantAcuerdos",
          "type": "uint256"
        },
        {
          "indexed": false,
          "internalType": "address",
          "name": "_personaQueContrata",
          "type": "address"
        },
        {
          "indexed": false,
          "internalType": "address payable",
          "name": "_personaContratada",
          "type": "address"
        },
        {
          "indexed": false,
          "internalType": "string",
          "name": "_direccion",
          "type": "string"
        },
        {
          "indexed": false,
          "internalType": "uint256",
          "name": "_montoAcordado",
          "type": "uint256"
        },
        {
          "indexed": false,
          "internalType": "string",
          "name": "_horarioDeVisita",
          "type": "string"
        },
        {
          "indexed": false,
          "internalType": "string",
          "name": "_otrasDescripciones",
          "type": "string"
        },
        {
          "indexed": false,
          "internalType": "bool",
          "name": "checkPersonaAcontratar",
          "type": "bool"
        },
        {
          "indexed": false,
          "internalType": "bool",
          "name": "checkPersonaQueContrata",
          "type": "bool"
        }
      ],
      "name": "seGeneroUnAcuerdo",
      "type": "event"
    },
    {
      "inputs": [],
      "name": "cantAcuerdos",
      "outputs": [
        {
          "internalType": "uint256",
          "name": "",
          "type": "uint256"
        }
      ],
      "stateMutability": "view",
      "type": "function"
    },
    {
      "inputs": [],
      "name": "cantPersonasInscriptas",
      "outputs": [
        {
          "internalType": "uint256",
          "name": "",
          "type": "uint256"
        }
      ],
      "stateMutability": "view",
      "type": "function"
    },
    {
      "inputs": [
        {
          "internalType": "uint256",
          "name": "",
          "type": "uint256"
        }
      ],
      "name": "listAcuerdo",
      "outputs": [
        {
          "internalType": "uint256",
          "name": "idDelAcuerdo",
          "type": "uint256"
        },
        {
          "internalType": "address",
          "name": "personaQueContrata",
          "type": "address"
        },
        {
          "internalType": "address payable",
          "name": "personaContratada",
          "type": "address"
        },
        {
          "internalType": "string",
          "name": "direccion",
          "type": "string"
        },
        {
          "internalType": "uint256",
          "name": "montoAcordado",
          "type": "uint256"
        },
        {
          "internalType": "string",
          "name": "horarioDeVisita",
          "type": "string"
        },
        {
          "internalType": "string",
          "name": "otrasDescripciones",
          "type": "string"
        },
        {
          "internalType": "bool",
          "name": "checkPersonaQueContrata",
          "type": "bool"
        },
        {
          "internalType": "bool",
          "name": "checkPersonaAcontratar",
          "type": "bool"
        }
      ],
      "stateMutability": "view",
      "type": "function"
    },
    {
      "inputs": [
        {
          "internalType": "uint256",
          "name": "",
          "type": "uint256"
        }
      ],
      "name": "listPersonas",
      "outputs": [
        {
          "internalType": "uint256",
          "name": "id",
          "type": "uint256"
        },
        {
          "internalType": "address payable",
          "name": "owner",
          "type": "address"
        },
        {
          "internalType": "string",
          "name": "nombre",
          "type": "string"
        },
        {
          "internalType": "string",
          "name": "apellido",
          "type": "string"
        },
        {
          "internalType": "string",
          "name": "horarioDisponible",
          "type": "string"
        },
        {
          "internalType": "string",
          "name": "urlImagen",
          "type": "string"
        }
      ],
      "stateMutability": "view",
      "type": "function"
    },
    {
      "inputs": [
        {
          "internalType": "string",
          "name": "_nombre",
          "type": "string"
        },
        {
          "internalType": "string",
          "name": "_apellido",
          "type": "string"
        },
        {
          "internalType": "string",
          "name": "_horarioDisponible",
          "type": "string"
        },
        {
          "internalType": "string",
          "name": "_urlImagen",
          "type": "string"
        },
        {
          "internalType": "string[]",
          "name": "_servicios",
          "type": "string[]"
        }
      ],
      "name": "postularse",
      "outputs": [],
      "stateMutability": "nonpayable",
      "type": "function"
    },
    {
      "inputs": [
        {
          "internalType": "address",
          "name": "_personaQueContrata",
          "type": "address"
        },
        {
          "internalType": "address payable",
          "name": "_personaContratada",
          "type": "address"
        },
        {
          "internalType": "string",
          "name": "_direccion",
          "type": "string"
        },
        {
          "internalType": "uint256",
          "name": "_montoAcordado",
          "type": "uint256"
        },
        {
          "internalType": "string",
          "name": "_horarioDeVisita",
          "type": "string"
        },
        {
          "internalType": "string",
          "name": "_otrasDescripciones",
          "type": "string"
        }
      ],
      "name": "generarUnAcuerdo",
      "outputs": [],
      "stateMutability": "nonpayable",
      "type": "function"
    },
    {
      "inputs": [
        {
          "internalType": "uint256",
          "name": "id",
          "type": "uint256"
        }
      ],
      "name": "checkPersonaAcontratar",
      "outputs": [],
      "stateMutability": "nonpayable",
      "type": "function"
    },
    {
      "inputs": [
        {
          "internalType": "uint256",
          "name": "_id",
          "type": "uint256"
        }
      ],
      "name": "contratarPersona",
      "outputs": [],
      "stateMutability": "payable",
      "type": "function"
    }
  ],
  "bytecode": "0x608060405260008055600060015534801561001957600080fd5b50611e8d806100296000396000f3fe60806040526004361061007b5760003560e01c8063c300921a1161004e578063c300921a14610141578063e15ba2fd1461015d578063e292e1e614610186578063eb19e924146101cb5761007b565b80632e3361a21461008057806336fa5f11146100ab57806387904e64146100ed578063b995997514610118575b600080fd5b34801561008c57600080fd5b506100956101f4565b6040516100a29190611936565b60405180910390f35b3480156100b757600080fd5b506100d260048036038101906100cd91906117d2565b6101fa565b6040516100e496959493929190611951565b60405180910390f35b3480156100f957600080fd5b50610102610476565b60405161010f9190611936565b60405180910390f35b34801561012457600080fd5b5061013f600480360381019061013a91906116cb565b61047c565b005b61015b600480360381019061015691906117d2565b61065b565b005b34801561016957600080fd5b50610184600480360381019061017f91906117d2565b610a2f565b005b34801561019257600080fd5b506101ad60048036038101906101a891906117d2565b610ea8565b6040516101c299989796959493929190611a60565b60405180910390f35b3480156101d757600080fd5b506101f260048036038101906101ed91906115ea565b6110e8565b005b60005481565b60026020528060005260406000206000915090508060000154908060010160009054906101000a900473ffffffffffffffffffffffffffffffffffffffff169080600201805461024990611caf565b80601f016020809104026020016040519081016040528092919081815260200182805461027590611caf565b80156102c25780601f10610297576101008083540402835291602001916102c2565b820191906000526020600020905b8154815290600101906020018083116102a557829003601f168201915b5050505050908060030180546102d790611caf565b80601f016020809104026020016040519081016040528092919081815260200182805461030390611caf565b80156103505780601f1061032557610100808354040283529160200191610350565b820191906000526020600020905b81548152906001019060200180831161033357829003601f168201915b50505050509080600401805461036590611caf565b80601f016020809104026020016040519081016040528092919081815260200182805461039190611caf565b80156103de5780601f106103b3576101008083540402835291602001916103de565b820191906000526020600020905b8154815290600101906020018083116103c157829003601f168201915b5050505050908060050180546103f390611caf565b80601f016020809104026020016040519081016040528092919081815260200182805461041f90611caf565b801561046c5780601f106104415761010080835404028352916020019161046c565b820191906000526020600020905b81548152906001019060200180831161044f57829003601f168201915b5050505050905086565b60015481565b600085511161048a57600080fd5b600084511161049857600080fd5b60008351116104a657600080fd5b60008251116104b457600080fd5b6000808154809291906104c690611d12565b91905055506040518060e0016040528060005481526020013373ffffffffffffffffffffffffffffffffffffffff1681526020018681526020018581526020018481526020018381526020018281525060026000805481526020019081526020016000206000820151816000015560208201518160010160006101000a81548173ffffffffffffffffffffffffffffffffffffffff021916908373ffffffffffffffffffffffffffffffffffffffff1602179055506040820151816002019080519060200190610597929190611318565b5060608201518160030190805190602001906105b4929190611318565b5060808201518160040190805190602001906105d1929190611318565b5060a08201518160050190805190602001906105ee929190611318565b5060c082015181600601908051906020019061060b92919061139e565b509050507fb97ced8a320c05a957bd36f3ab88072c00f32b37c3e895ef408bebaee2a8743760005433878787878760405161064c97969594939291906119ce565b60405180910390a15050505050565b6000600260008381526020019081526020016000206040518060e0016040529081600082015481526020016001820160009054906101000a900473ffffffffffffffffffffffffffffffffffffffff1673ffffffffffffffffffffffffffffffffffffffff1673ffffffffffffffffffffffffffffffffffffffff1681526020016002820180546106eb90611caf565b80601f016020809104026020016040519081016040528092919081815260200182805461071790611caf565b80156107645780601f1061073957610100808354040283529160200191610764565b820191906000526020600020905b81548152906001019060200180831161074757829003601f168201915b5050505050815260200160038201805461077d90611caf565b80601f01602080910402602001604051908101604052809291908181526020018280546107a990611caf565b80156107f65780601f106107cb576101008083540402835291602001916107f6565b820191906000526020600020905b8154815290600101906020018083116107d957829003601f168201915b5050505050815260200160048201805461080f90611caf565b80601f016020809104026020016040519081016040528092919081815260200182805461083b90611caf565b80156108885780601f1061085d57610100808354040283529160200191610888565b820191906000526020600020905b81548152906001019060200180831161086b57829003601f168201915b505050505081526020016005820180546108a190611caf565b80601f01602080910402602001604051908101604052809291908181526020018280546108cd90611caf565b801561091a5780601f106108ef5761010080835404028352916020019161091a565b820191906000526020600020905b8154815290600101906020018083116108fd57829003601f168201915b5050505050815260200160068201805480602002602001604051908101604052809291908181526020016000905b828210156109f457838290600052602060002001805461096790611caf565b80601f016020809104026020016040519081016040528092919081815260200182805461099390611caf565b80156109e05780601f106109b5576101008083540402835291602001916109e0565b820191906000526020600020905b8154815290600101906020018083116109c357829003601f168201915b505050505081526020019060010190610948565b5050505081525050905060008160200151905060008260000151118015610a215750600054826000015111155b610a2a57600080fd5b505050565b60006003600083815260200190815260200160002060405180610120016040529081600082015481526020016001820160009054906101000a900473ffffffffffffffffffffffffffffffffffffffff1673ffffffffffffffffffffffffffffffffffffffff1673ffffffffffffffffffffffffffffffffffffffff1681526020016002820160009054906101000a900473ffffffffffffffffffffffffffffffffffffffff1673ffffffffffffffffffffffffffffffffffffffff1673ffffffffffffffffffffffffffffffffffffffff168152602001600382018054610b1690611caf565b80601f0160208091040260200160405190810160405280929190818152602001828054610b4290611caf565b8015610b8f5780601f10610b6457610100808354040283529160200191610b8f565b820191906000526020600020905b815481529060010190602001808311610b7257829003601f168201915b5050505050815260200160048201548152602001600582018054610bb290611caf565b80601f0160208091040260200160405190810160405280929190818152602001828054610bde90611caf565b8015610c2b5780601f10610c0057610100808354040283529160200191610c2b565b820191906000526020600020905b815481529060010190602001808311610c0e57829003601f168201915b50505050508152602001600682018054610c4490611caf565b80601f0160208091040260200160405190810160405280929190818152602001828054610c7090611caf565b8015610cbd5780601f10610c9257610100808354040283529160200191610cbd565b820191906000526020600020905b815481529060010190602001808311610ca057829003601f168201915b505050505081526020016007820160009054906101000a900460ff161515151581526020016007820160019054906101000a900460ff1615151515815250509050806101000151158161010001901515908115158152505080600360008481526020019081526020016000206000820151816000015560208201518160010160006101000a81548173ffffffffffffffffffffffffffffffffffffffff021916908373ffffffffffffffffffffffffffffffffffffffff16021790555060408201518160020160006101000a81548173ffffffffffffffffffffffffffffffffffffffff021916908373ffffffffffffffffffffffffffffffffffffffff1602179055506060820151816003019080519060200190610ddd929190611318565b506080820151816004015560a0820151816005019080519060200190610e04929190611318565b5060c0820151816006019080519060200190610e21929190611318565b5060e08201518160070160006101000a81548160ff0219169083151502179055506101008201518160070160016101000a81548160ff0219169083151502179055509050507f356a5f18067b1f8722dc62e372770cbb5f0342bff40c23de59db9a32bfc00f0182826101000151604051610e9c929190611b02565b60405180910390a15050565b60036020528060005260406000206000915090508060000154908060010160009054906101000a900473ffffffffffffffffffffffffffffffffffffffff16908060020160009054906101000a900473ffffffffffffffffffffffffffffffffffffffff1690806003018054610f1d90611caf565b80601f0160208091040260200160405190810160405280929190818152602001828054610f4990611caf565b8015610f965780601f10610f6b57610100808354040283529160200191610f96565b820191906000526020600020905b815481529060010190602001808311610f7957829003601f168201915b505050505090806004015490806005018054610fb190611caf565b80601f0160208091040260200160405190810160405280929190818152602001828054610fdd90611caf565b801561102a5780601f10610fff5761010080835404028352916020019161102a565b820191906000526020600020905b81548152906001019060200180831161100d57829003601f168201915b50505050509080600601805461103f90611caf565b80601f016020809104026020016040519081016040528092919081815260200182805461106b90611caf565b80156110b85780601f1061108d576101008083540402835291602001916110b8565b820191906000526020600020905b81548152906001019060200180831161109b57829003601f168201915b5050505050908060070160009054906101000a900460ff16908060070160019054906101000a900460ff16905089565b600160008154809291906110fb90611d12565b919050555060405180610120016040528060015481526020018773ffffffffffffffffffffffffffffffffffffffff1681526020018673ffffffffffffffffffffffffffffffffffffffff168152602001858152602001848152602001838152602001828152602001600015158152602001600015158152506003600060015481526020019081526020016000206000820151816000015560208201518160010160006101000a81548173ffffffffffffffffffffffffffffffffffffffff021916908373ffffffffffffffffffffffffffffffffffffffff16021790555060408201518160020160006101000a81548173ffffffffffffffffffffffffffffffffffffffff021916908373ffffffffffffffffffffffffffffffffffffffff160217905550606082015181600301908051906020019061123d929190611318565b506080820151816004015560a0820151816005019080519060200190611264929190611318565b5060c0820151816006019080519060200190611281929190611318565b5060e08201518160070160006101000a81548160ff0219169083151502179055506101008201518160070160016101000a81548160ff0219169083151502179055509050507fe10d4eb14d033a33be59dc6b1105a9f28b98147d7e70f0772d000b4d37f1193260015487878787878760008060405161130899989796959493929190611a60565b60405180910390a1505050505050565b82805461132490611caf565b90600052602060002090601f016020900481019282611346576000855561138d565b82601f1061135f57805160ff191683800117855561138d565b8280016001018555821561138d579182015b8281111561138c578251825591602001919060010190611371565b5b50905061139a91906113fe565b5090565b8280548282559060005260206000209081019282156113ed579160200282015b828111156113ec5782518290805190602001906113dc929190611318565b50916020019190600101906113be565b5b5090506113fa919061141b565b5090565b5b808211156114175760008160009055506001016113ff565b5090565b5b8082111561143b5760008181611432919061143f565b5060010161141c565b5090565b50805461144b90611caf565b6000825580601f1061145d575061147c565b601f01602090049060005260206000209081019061147b91906113fe565b5b50565b600061149261148d84611b50565b611b2b565b905080838252602082019050828560208602820111156114b5576114b4611ded565b5b60005b8581101561150357813567ffffffffffffffff8111156114db576114da611de8565b5b8086016114e889826115a7565b855260208501945060208401935050506001810190506114b8565b5050509392505050565b600061152061151b84611b7c565b611b2b565b90508281526020810184848401111561153c5761153b611df2565b5b611547848285611c6d565b509392505050565b60008135905061155e81611e12565b92915050565b60008135905061157381611e29565b92915050565b600082601f83011261158e5761158d611de8565b5b813561159e84826020860161147f565b91505092915050565b600082601f8301126115bc576115bb611de8565b5b81356115cc84826020860161150d565b91505092915050565b6000813590506115e481611e40565b92915050565b60008060008060008060c0878903121561160757611606611dfc565b5b600061161589828a0161154f565b965050602061162689828a01611564565b955050604087013567ffffffffffffffff81111561164757611646611df7565b5b61165389828a016115a7565b945050606061166489828a016115d5565b935050608087013567ffffffffffffffff81111561168557611684611df7565b5b61169189828a016115a7565b92505060a087013567ffffffffffffffff8111156116b2576116b1611df7565b5b6116be89828a016115a7565b9150509295509295509295565b600080600080600060a086880312156116e7576116e6611dfc565b5b600086013567ffffffffffffffff81111561170557611704611df7565b5b611711888289016115a7565b955050602086013567ffffffffffffffff81111561173257611731611df7565b5b61173e888289016115a7565b945050604086013567ffffffffffffffff81111561175f5761175e611df7565b5b61176b888289016115a7565b935050606086013567ffffffffffffffff81111561178c5761178b611df7565b5b611798888289016115a7565b925050608086013567ffffffffffffffff8111156117b9576117b8611df7565b5b6117c588828901611579565b9150509295509295909350565b6000602082840312156117e8576117e7611dfc565b5b60006117f6848285016115d5565b91505092915050565b600061180b83836118b5565b905092915050565b61181c81611c25565b82525050565b61182b81611c13565b82525050565b600061183c82611bbd565b6118468185611be0565b93508360208202850161185885611bad565b8060005b85811015611894578484038952815161187585826117ff565b945061188083611bd3565b925060208a0199505060018101905061185c565b50829750879550505050505092915050565b6118af81611c37565b82525050565b60006118c082611bc8565b6118ca8185611bf1565b93506118da818560208601611c7c565b6118e381611e01565b840191505092915050565b60006118f982611bc8565b6119038185611c02565b9350611913818560208601611c7c565b61191c81611e01565b840191505092915050565b61193081611c63565b82525050565b600060208201905061194b6000830184611927565b92915050565b600060c0820190506119666000830189611927565b6119736020830188611813565b818103604083015261198581876118ee565b9050818103606083015261199981866118ee565b905081810360808301526119ad81856118ee565b905081810360a08301526119c181846118ee565b9050979650505050505050565b600060e0820190506119e3600083018a611927565b6119f06020830189611813565b8181036040830152611a0281886118ee565b90508181036060830152611a1681876118ee565b90508181036080830152611a2a81866118ee565b905081810360a0830152611a3e81856118ee565b905081810360c0830152611a528184611831565b905098975050505050505050565b600061012082019050611a76600083018c611927565b611a83602083018b611822565b611a90604083018a611813565b8181036060830152611aa281896118ee565b9050611ab16080830188611927565b81810360a0830152611ac381876118ee565b905081810360c0830152611ad781866118ee565b9050611ae660e08301856118a6565b611af46101008301846118a6565b9a9950505050505050505050565b6000604082019050611b176000830185611927565b611b2460208301846118a6565b9392505050565b6000611b35611b46565b9050611b418282611ce1565b919050565b6000604051905090565b600067ffffffffffffffff821115611b6b57611b6a611db9565b5b602082029050602081019050919050565b600067ffffffffffffffff821115611b9757611b96611db9565b5b611ba082611e01565b9050602081019050919050565b6000819050602082019050919050565b600081519050919050565b600081519050919050565b6000602082019050919050565b600082825260208201905092915050565b600082825260208201905092915050565b600082825260208201905092915050565b6000611c1e82611c43565b9050919050565b6000611c3082611c43565b9050919050565b60008115159050919050565b600073ffffffffffffffffffffffffffffffffffffffff82169050919050565b6000819050919050565b82818337600083830152505050565b60005b83811015611c9a578082015181840152602081019050611c7f565b83811115611ca9576000848401525b50505050565b60006002820490506001821680611cc757607f821691505b60208210811415611cdb57611cda611d8a565b5b50919050565b611cea82611e01565b810181811067ffffffffffffffff82111715611d0957611d08611db9565b5b80604052505050565b6000611d1d82611c63565b91507fffffffffffffffffffffffffffffffffffffffffffffffffffffffffffffffff821415611d5057611d4f611d5b565b5b600182019050919050565b7f4e487b7100000000000000000000000000000000000000000000000000000000600052601160045260246000fd5b7f4e487b7100000000000000000000000000000000000000000000000000000000600052602260045260246000fd5b7f4e487b7100000000000000000000000000000000000000000000000000000000600052604160045260246000fd5b600080fd5b600080fd5b600080fd5b600080fd5b600080fd5b6000601f19601f8301169050919050565b611e1b81611c13565b8114611e2657600080fd5b50565b611e3281611c25565b8114611e3d57600080fd5b50565b611e4981611c63565b8114611e5457600080fd5b5056fea2646970667358221220116c4c74032a101f70f359fb62301340cd7e1a7e6e22079b40d21cc74f00595064736f6c63430008060033",
  "immutableReferences": {},
  "source": "// SPDX-License-Identifier: MIT\r\npragma solidity ^0.8.4;\r\n\r\n//import './AcuerdoPersonaContrata';\r\n//import './AcuerdoPersonaContratada';\r\n/*\r\nfunction tranfer (address, uint256) external returns (bool);\r\n    function approve (address, uint256) external returns (bool);\r\n    function transferFrom (address, address, uint256) external returns (bool); //el que manda y el que recibe y cantidad que queremos mandar\r\n    function totalSupply () external view returns (uint256);\r\n    function balanceOf(address) external view returns (uint256);\r\n    function allowance (address, address) external view returns (uint256);\r\n\r\n    event Transfer(address indexed from, address indexed to, uint256 value);\r\n    event approval(address indexed owner, address indexed spender, uint256 value);\r\n*/\r\n\r\n// https://github.com/search?p=4&q=market+solidity&type=Repositories\r\n// https://github.com/yann1ckv/Marketplace_dapp/blob/master/contracts/Marketplace.sol\r\n// https://github.com/AlbertoLasa/marketplace-NFTs-ERC721/blob/main/marketPlace.sol\r\n// https://github.com/Sudhanmanoharan/MarketPlace-BlockChain/blob/master/contracts/MarketPlace.sol#L33\r\n// https://github.com/timbeiko/solidity-marketplace/blob/master/contracts/Stores.sol\r\n// https://github.com/timbeiko/solidity-marketplace/blob/master/contracts/Marketplace.sol\r\n// https://gist.github.com/dabit3/52e818faa83449bb5303cb868aee78f5\r\n// https://github.com/zalak13/MarketPlace-DApp/blob/master/contracts/Owned.sol\r\n\r\ncontract MarketPlaces {\r\n    uint public cantPersonasInscriptas = 0;\r\n    uint public cantAcuerdos = 0;\r\n    //AcuerdoPersonaContratada public acuerdoPersonaContratada;\r\n    //AcuerdoPersonaContrata public acuerdoPersonaContrata;\r\n\r\n    mapping (uint => PersonaPostulada) public listPersonas;\r\n    mapping (uint => Acuerdo) public listAcuerdo;\r\n\r\n    struct PersonaPostulada{\r\n        uint id;\r\n        address payable owner;\r\n        string nombre;\r\n        string apellido;\r\n        string horarioDisponible;\r\n        string urlImagen;\r\n        string[] servicios;\r\n    }\r\n\r\n    struct Acuerdo{\r\n        uint idDelAcuerdo;\r\n        address personaQueContrata;\r\n        address payable personaContratada;\r\n        \r\n        string direccion;\r\n        uint montoAcordado;\r\n        string horarioDeVisita;\r\n        string otrasDescripciones;\r\n\r\n        bool checkPersonaQueContrata;\r\n        bool checkPersonaAcontratar;\r\n    }\r\n\r\n    event personaRegistrada(uint id, address payable owner, string nombre, string apellido, string horarioDispoble, string urlImagen, string[] servicios);\r\n    event seGeneroUnAcuerdo(uint cantAcuerdos, address _personaQueContrata,address payable _personaContratada,string _direccion,uint _montoAcordado,string _horarioDeVisita,\r\n                        string _otrasDescripciones,bool checkPersonaAcontratar, bool checkPersonaQueContrata);\r\n    event checkModificadoPorPersonaAcontratar (uint id, bool checkPersonaAcontratar);\r\n\r\n    function postularse (string memory _nombre, string memory _apellido, string memory _horarioDisponible, string memory _urlImagen, string[] memory _servicios) public {\r\n        require(bytes(_nombre).length > 0);\r\n        require(bytes(_apellido).length > 0);\r\n        require(bytes(_horarioDisponible).length > 0);\r\n        require(bytes(_urlImagen).length > 0);\r\n        \r\n        cantPersonasInscriptas++;\r\n        listPersonas[cantPersonasInscriptas] = PersonaPostulada(cantPersonasInscriptas, payable(msg.sender), _nombre,_apellido,_horarioDisponible, _urlImagen, _servicios);\r\n        emit personaRegistrada(cantPersonasInscriptas, payable(msg.sender), _nombre, _apellido, _horarioDisponible, _urlImagen, _servicios);\r\n\r\n    }\r\n    function generarUnAcuerdo (address _personaQueContrata,address payable _personaContratada, string memory _direccion, uint _montoAcordado, \r\n                                string memory _horarioDeVisita, string memory _otrasDescripciones) public {\r\n        cantAcuerdos++;\r\n        listAcuerdo[cantAcuerdos] = Acuerdo(cantAcuerdos, _personaQueContrata, _personaContratada, _direccion, _montoAcordado, _horarioDeVisita, _otrasDescripciones, false, false);\r\n        emit seGeneroUnAcuerdo(cantAcuerdos, _personaQueContrata, _personaContratada, _direccion, _montoAcordado, _horarioDeVisita, _otrasDescripciones, false, false);\r\n    }\r\n    function checkPersonaAcontratar (uint id) public {\r\n        Acuerdo memory _acuerdo = listAcuerdo[id];\r\n        _acuerdo.checkPersonaAcontratar = !_acuerdo.checkPersonaAcontratar;\r\n        listAcuerdo[id] = _acuerdo;\r\n        emit checkModificadoPorPersonaAcontratar(id, _acuerdo.checkPersonaAcontratar);\r\n    }\r\n\r\n    function contratarPersona (uint _id) public payable{\r\n        PersonaPostulada memory _personaPostulada = listPersonas[_id];\r\n        address payable direccionAPagar = _personaPostulada.owner;\r\n        require(_personaPostulada.id > 0 && _personaPostulada.id <= cantPersonasInscriptas);\r\n     \r\n\r\n    }\r\n\r\n}",
  "sourcePath": "E:\\contract\\contracts\\marketplaces.sol",
  "compiler": {
    "name": "solc",
    "version": "0.8.6+commit.11564f7e.Emscripten.clang"
  },
  "schemaVersion": "3.4.10",
  "updatedAt": "2022-11-05T17:15:32.133Z",
  "devdoc": {
    "kind": "dev",
    "methods": {},
    "version": 1
  },
  "userdoc": {
    "kind": "user",
    "methods": {},
    "version": 1
  }
}