{
  "contractName": "marketplace",
  "abi": [
    {
      "inputs": [
        {
          "internalType": "address",
          "name": "direccionBilletera",
          "type": "address"
        }
      ],
      "name": "abrirPosicion",
      "outputs": [],
      "stateMutability": "nonpayable",
      "type": "function"
    }
  ],
  "bytecode": "0x608060405234801561001057600080fd5b50610102806100206000396000f3fe6080604052348015600f57600080fd5b506004361060285760003560e01c8063e28e065d14602d575b600080fd5b60436004803603810190603f9190605b565b6045565b005b50565b60008135905060558160b8565b92915050565b600060208284031215606e57606d60b3565b5b6000607a848285016048565b91505092915050565b6000608c826093565b9050919050565b600073ffffffffffffffffffffffffffffffffffffffff82169050919050565b600080fd5b60bf816083565b811460c957600080fd5b5056fea26469706673582212206462e35b09d1332f7ce397350fd12a225ccbba48e47588a16e5cd99304cd072864736f6c63430008060033",
  "immutableReferences": {},
  "source": "// SPDX-License-Identifier: MIT\r\npragma solidity ^0.8.4;\r\n\r\ncontract marketplace {\r\n\r\nenum Status {\r\n    open, cancelled, executed\r\n}\r\n\r\nstruct personaContratada{\r\n    address suDirecionDeBilletera;\r\n    string nombre;\r\n    string apellido;\r\n    string imagen;\r\n    string[] trabajosQuePuedeHacer;\r\n}\r\n\r\nstruct datosAcordados{\r\n    string direccionDeVisita;\r\n    uint montoAcordado;\r\n    string horaAcordada;\r\n}\r\n\r\nstruct transaccion{\r\n    address contratante;\r\n    address contratado;\r\n    Status status;\r\n    uint montoAcordado;\r\n}\r\n\r\nfunction abrirPosicion (address direccionBilletera) public {\r\n\r\n}\r\n\r\n\r\n\r\n\r\n}",
  "sourcePath": "E:\\contract\\contracts\\market1.sol",
  "compiler": {
    "name": "solc",
    "version": "0.8.6+commit.11564f7e.Emscripten.clang"
  },
  "schemaVersion": "3.4.10",
  "updatedAt": "2022-11-05T17:15:32.127Z",
  "devdoc": {
    "kind": "dev",
    "methods": {},
    "version": 1
  },
  "userdoc": {
    "kind": "user",
    "methods": {},
    "version": 1
  }
}