{
  "contractName": "Personas",
  "abi": [
    {
      "anonymous": false,
      "inputs": [
        {
          "indexed": false,
          "internalType": "uint256",
          "name": "_id",
          "type": "uint256"
        },
        {
          "indexed": false,
          "internalType": "address payable",
          "name": "owner",
          "type": "address"
        },
        {
          "indexed": false,
          "internalType": "bool",
          "name": "_esProfesional",
          "type": "bool"
        },
        {
          "indexed": false,
          "internalType": "string",
          "name": "_nombre",
          "type": "string"
        },
        {
          "indexed": false,
          "internalType": "string",
          "name": "_apellido",
          "type": "string"
        },
        {
          "indexed": false,
          "internalType": "string",
          "name": "_horarioDisponible",
          "type": "string"
        },
        {
          "indexed": false,
          "internalType": "string",
          "name": "_urlImagen",
          "type": "string"
        },
        {
          "indexed": false,
          "internalType": "string[]",
          "name": "_servicios",
          "type": "string[]"
        }
      ],
      "name": "personaRegistrada",
      "type": "event"
    },
    {
      "inputs": [],
      "name": "id",
      "outputs": [
        {
          "internalType": "uint256",
          "name": "",
          "type": "uint256"
        }
      ],
      "stateMutability": "view",
      "type": "function",
      "constant": true
    },
    {
      "inputs": [
        {
          "internalType": "uint256",
          "name": "",
          "type": "uint256"
        }
      ],
      "name": "listPersonas",
      "outputs": [
        {
          "internalType": "uint256",
          "name": "idPersona",
          "type": "uint256"
        },
        {
          "internalType": "address payable",
          "name": "owner",
          "type": "address"
        },
        {
          "internalType": "bool",
          "name": "esProfesional",
          "type": "bool"
        },
        {
          "internalType": "string",
          "name": "nombre",
          "type": "string"
        },
        {
          "internalType": "string",
          "name": "apellido",
          "type": "string"
        },
        {
          "internalType": "string",
          "name": "horarioDisponible",
          "type": "string"
        },
        {
          "internalType": "string",
          "name": "urlImagen",
          "type": "string"
        }
      ],
      "stateMutability": "view",
      "type": "function",
      "constant": true
    },
    {
      "inputs": [
        {
          "internalType": "string",
          "name": "_nombre",
          "type": "string"
        },
        {
          "internalType": "string",
          "name": "_apellido",
          "type": "string"
        },
        {
          "internalType": "string",
          "name": "_urlImagen",
          "type": "string"
        }
      ],
      "name": "agregarPersona",
      "outputs": [],
      "stateMutability": "nonpayable",
      "type": "function"
    },
    {
      "inputs": [
        {
          "internalType": "string",
          "name": "_nombre",
          "type": "string"
        },
        {
          "internalType": "string",
          "name": "_apellido",
          "type": "string"
        },
        {
          "internalType": "string",
          "name": "_horarioDisponible",
          "type": "string"
        },
        {
          "internalType": "string",
          "name": "_urlImagen",
          "type": "string"
        },
        {
          "internalType": "string[]",
          "name": "_serviciosPostulante",
          "type": "string[]"
        }
      ],
      "name": "agregarPostulante",
      "outputs": [],
      "stateMutability": "nonpayable",
      "type": "function"
    },
    {
      "inputs": [
        {
          "internalType": "uint256",
          "name": "_id",
          "type": "uint256"
        }
      ],
      "name": "getPersona",
      "outputs": [
        {
          "internalType": "uint256",
          "name": "",
          "type": "uint256"
        },
        {
          "internalType": "address",
          "name": "",
          "type": "address"
        },
        {
          "internalType": "bool",
          "name": "",
          "type": "bool"
        },
        {
          "internalType": "string",
          "name": "",
          "type": "string"
        },
        {
          "internalType": "string",
          "name": "",
          "type": "string"
        },
        {
          "internalType": "string",
          "name": "",
          "type": "string"
        },
        {
          "internalType": "string",
          "name": "",
          "type": "string"
        },
        {
          "internalType": "string[]",
          "name": "",
          "type": "string[]"
        }
      ],
      "stateMutability": "view",
      "type": "function",
      "constant": true
    }
  ],
  "bytecode": "0x60806040526000805534801561001457600080fd5b5061176e806100246000396000f3fe608060405234801561001057600080fd5b50600436106100565760003560e01c806260c5061461005b57806314f9dc8b1461007757806336fa5f11146100ae578063af640d0f146100e4578063d366790f14610102575b600080fd5b61007560048036038101906100709190610f31565b61011e565b005b610091600480360381019061008c9190611020565b61032f565b6040516100a5989796959493929190611389565b60405180910390f35b6100c860048036038101906100c39190611020565b61073f565b6040516100db97969594939291906111be565b60405180910390f35b6100ec6109ce565b6040516100f991906111a3565b60405180910390f35b61011c60048036038101906101179190610e9a565b6109d4565b005b600085511161012c57600080fd5b600084511161013a57600080fd5b600083511161014857600080fd5b600082511161015657600080fd5b60006001905060008081548092919061016e90611611565b919050555060405180610100016040528060005481526020013373ffffffffffffffffffffffffffffffffffffffff16815260200182151581526020018781526020018681526020018581526020018481526020018381525060016000805481526020019081526020016000206000820151816000015560208201518160010160006101000a81548173ffffffffffffffffffffffffffffffffffffffff021916908373ffffffffffffffffffffffffffffffffffffffff16021790555060408201518160010160146101000a81548160ff0219169083151502179055506060820151816002019080519060200190610268929190610c06565b506080820151816003019080519060200190610285929190610c06565b5060a08201518160040190805190602001906102a2929190610c06565b5060c08201518160050190805190602001906102bf929190610c06565b5060e08201518160060190805190602001906102dc929190610c8c565b509050507fd0639a6cb80c7bdd176b6ba597ada945549c9a79322f7a4aa3731677c31d88f96000543383898989898960405161031f989796959493929190611249565b60405180910390a1505050505050565b600080600060608060608060606000600160008b815260200190815260200160002060405180610100016040529081600082015481526020016001820160009054906101000a900473ffffffffffffffffffffffffffffffffffffffff1673ffffffffffffffffffffffffffffffffffffffff1673ffffffffffffffffffffffffffffffffffffffff1681526020016001820160149054906101000a900460ff161515151581526020016002820180546103e8906115ae565b80601f0160208091040260200160405190810160405280929190818152602001828054610414906115ae565b80156104615780601f1061043657610100808354040283529160200191610461565b820191906000526020600020905b81548152906001019060200180831161044457829003601f168201915b5050505050815260200160038201805461047a906115ae565b80601f01602080910402602001604051908101604052809291908181526020018280546104a6906115ae565b80156104f35780601f106104c8576101008083540402835291602001916104f3565b820191906000526020600020905b8154815290600101906020018083116104d657829003601f168201915b5050505050815260200160048201805461050c906115ae565b80601f0160208091040260200160405190810160405280929190818152602001828054610538906115ae565b80156105855780601f1061055a57610100808354040283529160200191610585565b820191906000526020600020905b81548152906001019060200180831161056857829003601f168201915b5050505050815260200160058201805461059e906115ae565b80601f01602080910402602001604051908101604052809291908181526020018280546105ca906115ae565b80156106175780601f106105ec57610100808354040283529160200191610617565b820191906000526020600020905b8154815290600101906020018083116105fa57829003601f168201915b5050505050815260200160068201805480602002602001604051908101604052809291908181526020016000905b828210156106f1578382906000526020600020018054610664906115ae565b80601f0160208091040260200160405190810160405280929190818152602001828054610690906115ae565b80156106dd5780601f106106b2576101008083540402835291602001916106dd565b820191906000526020600020905b8154815290600101906020018083116106c057829003601f168201915b505050505081526020019060010190610645565b50505050815250509050806000015181602001518260400151836060015184608001518560a001518660c001518760e001519850985098509850985098509850985050919395975091939597565b60016020528060005260406000206000915090508060000154908060010160009054906101000a900473ffffffffffffffffffffffffffffffffffffffff16908060010160149054906101000a900460ff16908060020180546107a1906115ae565b80601f01602080910402602001604051908101604052809291908181526020018280546107cd906115ae565b801561081a5780601f106107ef5761010080835404028352916020019161081a565b820191906000526020600020905b8154815290600101906020018083116107fd57829003601f168201915b50505050509080600301805461082f906115ae565b80601f016020809104026020016040519081016040528092919081815260200182805461085b906115ae565b80156108a85780601f1061087d576101008083540402835291602001916108a8565b820191906000526020600020905b81548152906001019060200180831161088b57829003601f168201915b5050505050908060040180546108bd906115ae565b80601f01602080910402602001604051908101604052809291908181526020018280546108e9906115ae565b80156109365780601f1061090b57610100808354040283529160200191610936565b820191906000526020600020905b81548152906001019060200180831161091957829003601f168201915b50505050509080600501805461094b906115ae565b80601f0160208091040260200160405190810160405280929190818152602001828054610977906115ae565b80156109c45780601f10610999576101008083540402835291602001916109c4565b820191906000526020600020905b8154815290600101906020018083116109a757829003601f168201915b5050505050905087565b60005481565b60008351116109e257600080fd5b60008251116109f057600080fd5b60008151116109fe57600080fd5b6060600080815480929190610a1290611611565b919050555060405180610100016040528060005481526020013373ffffffffffffffffffffffffffffffffffffffff1681526020016000151581526020018581526020018481526020016040518060400160405280600181526020017f2d0000000000000000000000000000000000000000000000000000000000000081525081526020018381526020018281525060016000805481526020019081526020016000206000820151816000015560208201518160010160006101000a81548173ffffffffffffffffffffffffffffffffffffffff021916908373ffffffffffffffffffffffffffffffffffffffff16021790555060408201518160010160146101000a81548160ff0219169083151502179055506060820151816002019080519060200190610b42929190610c06565b506080820151816003019080519060200190610b5f929190610c06565b5060a0820151816004019080519060200190610b7c929190610c06565b5060c0820151816005019080519060200190610b99929190610c06565b5060e0820151816006019080519060200190610bb6929190610c8c565b509050507fd0639a6cb80c7bdd176b6ba597ada945549c9a79322f7a4aa3731677c31d88f960005433600087878787604051610bf897969594939291906112ea565b60405180910390a150505050565b828054610c12906115ae565b90600052602060002090601f016020900481019282610c345760008555610c7b565b82601f10610c4d57805160ff1916838001178555610c7b565b82800160010185558215610c7b579182015b82811115610c7a578251825591602001919060010190610c5f565b5b509050610c889190610cec565b5090565b828054828255906000526020600020908101928215610cdb579160200282015b82811115610cda578251829080519060200190610cca929190610c06565b5091602001919060010190610cac565b5b509050610ce89190610d09565b5090565b5b80821115610d05576000816000905550600101610ced565b5090565b5b80821115610d295760008181610d209190610d2d565b50600101610d0a565b5090565b508054610d39906115ae565b6000825580601f10610d4b5750610d6a565b601f016020900490600052602060002090810190610d699190610cec565b5b50565b6000610d80610d7b8461144f565b61142a565b90508083825260208201905082856020860282011115610d9f57600080fd5b60005b85811015610de957813567ffffffffffffffff811115610dc157600080fd5b808601610dce8982610e5b565b85526020850194506020840193505050600181019050610da2565b5050509392505050565b6000610e06610e018461147b565b61142a565b905082815260208101848484011115610e1e57600080fd5b610e2984828561156c565b509392505050565b600082601f830112610e4257600080fd5b8135610e52848260208601610d6d565b91505092915050565b600082601f830112610e6c57600080fd5b8135610e7c848260208601610df3565b91505092915050565b600081359050610e9481611721565b92915050565b600080600060608486031215610eaf57600080fd5b600084013567ffffffffffffffff811115610ec957600080fd5b610ed586828701610e5b565b935050602084013567ffffffffffffffff811115610ef257600080fd5b610efe86828701610e5b565b925050604084013567ffffffffffffffff811115610f1b57600080fd5b610f2786828701610e5b565b9150509250925092565b600080600080600060a08688031215610f4957600080fd5b600086013567ffffffffffffffff811115610f6357600080fd5b610f6f88828901610e5b565b955050602086013567ffffffffffffffff811115610f8c57600080fd5b610f9888828901610e5b565b945050604086013567ffffffffffffffff811115610fb557600080fd5b610fc188828901610e5b565b935050606086013567ffffffffffffffff811115610fde57600080fd5b610fea88828901610e5b565b925050608086013567ffffffffffffffff81111561100757600080fd5b61101388828901610e31565b9150509295509295909350565b60006020828403121561103257600080fd5b600061104084828501610e85565b91505092915050565b600061105583836110ff565b905092915050565b61106681611524565b82525050565b61107581611512565b82525050565b6000611086826114bc565b61109081856114df565b9350836020820285016110a2856114ac565b8060005b858110156110de57848403895281516110bf8582611049565b94506110ca836114d2565b925060208a019950506001810190506110a6565b50829750879550505050505092915050565b6110f981611536565b82525050565b600061110a826114c7565b61111481856114f0565b935061112481856020860161157b565b61112d816116e7565b840191505092915050565b6000611143826114c7565b61114d8185611501565b935061115d81856020860161157b565b611166816116e7565b840191505092915050565b600061117e600183611501565b9150611189826116f8565b602082019050919050565b61119d81611562565b82525050565b60006020820190506111b86000830184611194565b92915050565b600060e0820190506111d3600083018a611194565b6111e0602083018961105d565b6111ed60408301886110f0565b81810360608301526111ff8187611138565b905081810360808301526112138186611138565b905081810360a08301526112278185611138565b905081810360c083015261123b8184611138565b905098975050505050505050565b60006101008201905061125f600083018b611194565b61126c602083018a61105d565b61127960408301896110f0565b818103606083015261128b8188611138565b9050818103608083015261129f8187611138565b905081810360a08301526112b38186611138565b905081810360c08301526112c78185611138565b905081810360e08301526112db818461107b565b90509998505050505050505050565b600061010082019050611300600083018a611194565b61130d602083018961105d565b61131a60408301886110f0565b818103606083015261132c8187611138565b905081810360808301526113408186611138565b905081810360a083015261135381611171565b905081810360c08301526113678185611138565b905081810360e083015261137b818461107b565b905098975050505050505050565b60006101008201905061139f600083018b611194565b6113ac602083018a61106c565b6113b960408301896110f0565b81810360608301526113cb8188611138565b905081810360808301526113df8187611138565b905081810360a08301526113f38186611138565b905081810360c08301526114078185611138565b905081810360e083015261141b818461107b565b90509998505050505050505050565b6000611434611445565b905061144082826115e0565b919050565b6000604051905090565b600067ffffffffffffffff82111561146a576114696116b8565b5b602082029050602081019050919050565b600067ffffffffffffffff821115611496576114956116b8565b5b61149f826116e7565b9050602081019050919050565b6000819050602082019050919050565b600081519050919050565b600081519050919050565b6000602082019050919050565b600082825260208201905092915050565b600082825260208201905092915050565b600082825260208201905092915050565b600061151d82611542565b9050919050565b600061152f82611542565b9050919050565b60008115159050919050565b600073ffffffffffffffffffffffffffffffffffffffff82169050919050565b6000819050919050565b82818337600083830152505050565b60005b8381101561159957808201518184015260208101905061157e565b838111156115a8576000848401525b50505050565b600060028204905060018216806115c657607f821691505b602082108114156115da576115d9611689565b5b50919050565b6115e9826116e7565b810181811067ffffffffffffffff82111715611608576116076116b8565b5b80604052505050565b600061161c82611562565b91507fffffffffffffffffffffffffffffffffffffffffffffffffffffffffffffffff82141561164f5761164e61165a565b5b600182019050919050565b7f4e487b7100000000000000000000000000000000000000000000000000000000600052601160045260246000fd5b7f4e487b7100000000000000000000000000000000000000000000000000000000600052602260045260246000fd5b7f4e487b7100000000000000000000000000000000000000000000000000000000600052604160045260246000fd5b6000601f19601f8301169050919050565b7f2d00000000000000000000000000000000000000000000000000000000000000600082015250565b61172a81611562565b811461173557600080fd5b5056fea26469706673582212204c91065914569e2de97a0da9ee67f5e53831a3da0f827fc5c669ceb09837a3ad64736f6c63430008040033",
  "immutableReferences": {},
  "source": "// SPDX-License-Identifier: MIT\r\npragma solidity ^0.8.4;\r\n\r\ncontract Personas{\r\n    uint public id = 0;\r\n    mapping (uint => Persona) public listPersonas;\r\n\r\n    struct Persona{\r\n        uint idPersona;\r\n        address payable owner;\r\n        bool esProfesional;\r\n        string nombre;\r\n        string apellido;\r\n        string horarioDisponible; //Se deberia dejar en null para los no postulados.\r\n        string urlImagen;\r\n        string[] servicios; //Se deberia dejar en null para los no postulados.\r\n    }\r\n\r\n    event personaRegistrada(uint _id,address payable owner, bool _esProfesional,string _nombre, string _apellido,string _horarioDisponible,string _urlImagen,string[] _servicios);\r\n\r\n    function agregarPersona (string memory _nombre, string memory _apellido, string memory _urlImagen) public {\r\n        require(bytes(_nombre).length > 0);\r\n        require(bytes(_apellido).length > 0);\r\n        require(bytes(_urlImagen).length > 0);\r\n        string[] memory _servicios;\r\n        id++;\r\n        listPersonas[id] = Persona(id, payable(msg.sender),false, _nombre,_apellido,\"-\", _urlImagen, _servicios);\r\n        emit personaRegistrada(id, payable(msg.sender), false, _nombre, _apellido, \"-\", _urlImagen, _servicios);\r\n    }\r\n\r\n    function agregarPostulante (string memory _nombre, string memory _apellido, string memory _horarioDisponible, string memory _urlImagen, string[] memory _serviciosPostulante) public {\r\n        require(bytes(_nombre).length > 0);\r\n        require(bytes(_apellido).length > 0);\r\n        require(bytes(_horarioDisponible).length > 0);\r\n        require(bytes(_urlImagen).length > 0);\r\n        bool esProfesional = true;\r\n        id++;\r\n        listPersonas[id] = Persona(id, payable(msg.sender), esProfesional ,_nombre,_apellido,_horarioDisponible, _urlImagen, _serviciosPostulante);\r\n        emit personaRegistrada(id, payable(msg.sender), esProfesional ,_nombre, _apellido, _horarioDisponible, _urlImagen, _serviciosPostulante);\r\n    }\r\n\r\n    function getPersona (uint _id) public view returns (uint,address, bool,string memory, string memory,string memory,string memory, string[] memory) {\r\n        Persona memory _listPersonas = listPersonas[_id];\r\n\r\n        return (_listPersonas.idPersona, _listPersonas.owner, _listPersonas.esProfesional, _listPersonas.nombre, _listPersonas.apellido\r\n        , _listPersonas.horarioDisponible, _listPersonas.urlImagen, _listPersonas.servicios);\r\n    }\r\n\r\n}",
  "sourcePath": "E:\\Kammit\\contracts\\Personas.sol",
  "compiler": {
    "name": "solc",
    "version": "0.8.4+commit.c7e474f2.Emscripten.clang"
  },
  "schemaVersion": "3.4.10",
  "updatedAt": "2022-11-09T02:14:10.637Z",
  "networkType": "ethereum",
  "devdoc": {
    "kind": "dev",
    "methods": {},
    "version": 1
  },
  "userdoc": {
    "kind": "user",
    "methods": {},
    "version": 1
  }
}